{
  "contractName": "Token",
  "abi": [
    {
      "inputs": [],
      "stateMutability": "nonpayable",
      "type": "constructor"
    },
    {
      "anonymous": false,
      "inputs": [
        {
          "indexed": true,
          "internalType": "address",
          "name": "owner",
          "type": "address"
        },
        {
          "indexed": true,
          "internalType": "address",
          "name": "spender",
          "type": "address"
        },
        {
          "indexed": false,
          "internalType": "uint256",
          "name": "value",
          "type": "uint256"
        }
      ],
      "name": "Approval",
      "type": "event"
    },
    {
      "anonymous": false,
      "inputs": [
        {
          "indexed": true,
          "internalType": "address",
          "name": "from",
          "type": "address"
        },
        {
          "indexed": true,
          "internalType": "address",
          "name": "to",
          "type": "address"
        },
        {
          "indexed": false,
          "internalType": "uint256",
          "name": "value",
          "type": "uint256"
        }
      ],
      "name": "Transfer",
      "type": "event"
    },
    {
      "inputs": [],
      "name": "master",
      "outputs": [
        {
          "internalType": "address",
          "name": "",
          "type": "address"
        }
      ],
      "stateMutability": "view",
      "type": "function"
    },
    {
      "inputs": [],
      "name": "name",
      "outputs": [
        {
          "internalType": "string",
          "name": "",
          "type": "string"
        }
      ],
      "stateMutability": "view",
      "type": "function"
    },
    {
      "inputs": [],
      "name": "symbol",
      "outputs": [
        {
          "internalType": "string",
          "name": "",
          "type": "string"
        }
      ],
      "stateMutability": "view",
      "type": "function"
    },
    {
      "inputs": [],
      "name": "decimals",
      "outputs": [
        {
          "internalType": "uint8",
          "name": "",
          "type": "uint8"
        }
      ],
      "stateMutability": "view",
      "type": "function"
    },
    {
      "inputs": [],
      "name": "totalSupply",
      "outputs": [
        {
          "internalType": "uint256",
          "name": "",
          "type": "uint256"
        }
      ],
      "stateMutability": "view",
      "type": "function"
    },
    {
      "inputs": [
        {
          "internalType": "address",
          "name": "_account",
          "type": "address"
        }
      ],
      "name": "balanceOf",
      "outputs": [
        {
          "internalType": "uint256",
          "name": "",
          "type": "uint256"
        }
      ],
      "stateMutability": "view",
      "type": "function"
    },
    {
      "inputs": [
        {
          "internalType": "address",
          "name": "_recipient",
          "type": "address"
        },
        {
          "internalType": "uint256",
          "name": "_amount",
          "type": "uint256"
        }
      ],
      "name": "transfer",
      "outputs": [
        {
          "internalType": "bool",
          "name": "",
          "type": "bool"
        }
      ],
      "stateMutability": "nonpayable",
      "type": "function"
    },
    {
      "inputs": [
        {
          "internalType": "address",
          "name": "_sender",
          "type": "address"
        },
        {
          "internalType": "address",
          "name": "_recipient",
          "type": "address"
        },
        {
          "internalType": "uint256",
          "name": "_amount",
          "type": "uint256"
        }
      ],
      "name": "transferFrom",
      "outputs": [
        {
          "internalType": "bool",
          "name": "",
          "type": "bool"
        }
      ],
      "stateMutability": "nonpayable",
      "type": "function"
    },
    {
      "inputs": [
        {
          "internalType": "address",
          "name": "_owner",
          "type": "address"
        },
        {
          "internalType": "address",
          "name": "_spender",
          "type": "address"
        }
      ],
      "name": "allowance",
      "outputs": [
        {
          "internalType": "uint256",
          "name": "",
          "type": "uint256"
        }
      ],
      "stateMutability": "view",
      "type": "function"
    },
    {
      "inputs": [
        {
          "internalType": "address",
          "name": "_spender",
          "type": "address"
        },
        {
          "internalType": "uint256",
          "name": "_amount",
          "type": "uint256"
        }
      ],
      "name": "approve",
      "outputs": [
        {
          "internalType": "bool",
          "name": "",
          "type": "bool"
        }
      ],
      "stateMutability": "nonpayable",
      "type": "function"
    },
    {
      "inputs": [
        {
          "internalType": "uint256",
          "name": "_amount",
          "type": "uint256"
        }
      ],
      "name": "mint",
      "outputs": [],
      "stateMutability": "nonpayable",
      "type": "function"
    },
    {
      "inputs": [
        {
          "internalType": "uint256",
          "name": "_amount",
          "type": "uint256"
        },
        {
          "internalType": "address",
          "name": "_address",
          "type": "address"
        }
      ],
      "name": "mintByMaster",
      "outputs": [],
      "stateMutability": "nonpayable",
      "type": "function"
    },
    {
      "inputs": [
        {
          "internalType": "uint256",
          "name": "_amount",
          "type": "uint256"
        }
      ],
      "name": "burn",
      "outputs": [],
      "stateMutability": "nonpayable",
      "type": "function"
    }
  ],
  "bytecode": "0x60c060405260056080819052642a37b5b2b760d91b60a090815261002691600091906100b2565b50604080518082019091526003808252622a25a760e91b6020909201918252610051916001916100b2565b506002805460ff1916601217905534801561006b57600080fd5b5060028054610100600160a81b031916336101008102919091179091556e01bbbbf868fa2cfecc335a00000000600581905560009182526003602052604090912055610185565b8280546100be9061014b565b90600052602060002090601f0160209004810192826100e05760008555610126565b82601f106100f957805160ff1916838001178555610126565b82800160010185558215610126579182015b8281111561012657825182559160200191906001019061010b565b50610132929150610136565b5090565b5b808211156101325760008155600101610137565b600181811c9082168061015f57607f821691505b60208210810361017f57634e487b7160e01b600052602260045260246000fd5b50919050565b610829806101946000396000f3fe608060405234801561001057600080fd5b50600436106100cf5760003560e01c806370a082311161008c578063a0712d6811610066578063a0712d68146101a8578063a9059cbb146101bb578063dd62ed3e146101ce578063ee97f7f31461020757600080fd5b806370a082311461016457806395d89b411461018d5780639de555381461019557600080fd5b806306fdde03146100d4578063095ea7b3146100f257806318160ddd1461011557806323b872dd14610127578063313ce5671461013a57806342966c681461014f575b600080fd5b6100dc610237565b6040516100e991906105ec565b60405180910390f35b61010561010036600461065d565b6102c9565b60405190151581526020016100e9565b6005545b6040519081526020016100e9565b610105610135366004610687565b6102df565b60025460405160ff90911681526020016100e9565b61016261015d3660046106c3565b61032e565b005b6101196101723660046106dc565b6001600160a01b031660009081526003602052604090205490565b6100dc610394565b6101626101a33660046106fe565b6103a3565b6101626101b63660046106c3565b610488565b6101056101c936600461065d565b6104e7565b6101196101dc36600461072a565b6001600160a01b03918216600090815260046020908152604080832093909416825291909152205490565b60025461021f9061010090046001600160a01b031681565b6040516001600160a01b0390911681526020016100e9565b60606000805461024690610754565b80601f016020809104026020016040519081016040528092919081815260200182805461027290610754565b80156102bf5780601f10610294576101008083540402835291602001916102bf565b820191906000526020600020905b8154815290600101906020018083116102a257829003601f168201915b5050505050905090565b60006102d63384846104f4565b50600192915050565b6001600160a01b03831660009081526004602090815260408083203380855292528220546103199186916103149086906107a4565b6104f4565b610324848484610556565b5060019392505050565b336000908152600360205260409020546103499082906107a4565b336000908152600360205260409020556005546103679082906107a4565b60055560405181815260009033906000805160206107d4833981519152906020015b60405180910390a350565b60606001805461024690610754565b60025461010090046001600160a01b0316336001600160a01b0316146104075760405162461bcd60e51b81526020600482015260156024820152742a37b5b2b71d1024a72b20a624a22fa6a0a9aa22a960591b604482015260640160405180910390fd5b6001600160a01b03811660009081526003602052604090205461042b9083906107bb565b6001600160a01b0382166000908152600360205260409020556005546104529083906107bb565b6005556040518281526001600160a01b038216906000906000805160206107d48339815191529060200160405180910390a35050565b336000908152600360205260409020546104a39082906107bb565b336000908152600360205260409020556005546104c19082906107bb565b60055560405181815233906000906000805160206107d483398151915290602001610389565b60006102d6338484610556565b6001600160a01b0383811660008181526004602090815260408083209487168084529482529182902085905590518481527f8c5be1e5ebec7d5bd14f71427d1e84f3dd0314c0f7b2291e5b200ac8c7c3b92591015b60405180910390a3505050565b6001600160a01b03831660009081526003602052604090205461057a9082906107a4565b6001600160a01b0380851660009081526003602052604080822093909355908416815220546105aa9082906107bb565b6001600160a01b0380841660008181526003602052604090819020939093559151908516906000805160206107d4833981519152906105499085815260200190565b600060208083528351808285015260005b81811015610619578581018301518582016040015282016105fd565b8181111561062b576000604083870101525b50601f01601f1916929092016040019392505050565b80356001600160a01b038116811461065857600080fd5b919050565b6000806040838503121561067057600080fd5b61067983610641565b946020939093013593505050565b60008060006060848603121561069c57600080fd5b6106a584610641565b92506106b360208501610641565b9150604084013590509250925092565b6000602082840312156106d557600080fd5b5035919050565b6000602082840312156106ee57600080fd5b6106f782610641565b9392505050565b6000806040838503121561071157600080fd5b8235915061072160208401610641565b90509250929050565b6000806040838503121561073d57600080fd5b61074683610641565b915061072160208401610641565b600181811c9082168061076857607f821691505b60208210810361078857634e487b7160e01b600052602260045260246000fd5b50919050565b634e487b7160e01b600052601160045260246000fd5b6000828210156107b6576107b661078e565b500390565b600082198211156107ce576107ce61078e565b50019056feddf252ad1be2c89b69c2b068fc378daa952ba7f163c4a11628f55a4df523b3efa2646970667358221220bc7a89ef5dd06eb381b73f86151cfe78f260d1885adbd94073ff368562b91d2a64736f6c634300080e0033",
  "immutableReferences": {},
  "source": "// SPDX-License-Identifier: BCOM\n\npragma solidity =0.8.14;\n\ncontract Token {\n\n    string private _name = \"Token\";\n    string private _symbol = \"TKN\";\n    uint8 private _decimals = 18;\n\n    address public master;\n\n    mapping (address => uint256) private _balances;\n    mapping (address => mapping (address => uint256)) private _allowances;\n\n    uint256 private _totalSupply;\n\n    event Transfer(\n        address indexed from,\n        address indexed to,\n        uint256 value\n    );\n\n    event Approval(\n        address indexed owner,\n        address indexed spender,\n        uint256 value\n    );\n\n    constructor() {\n        master = msg.sender;\n        _totalSupply = 9000000000000000000000000000000000;\n        _balances[msg.sender] = _totalSupply;\n    }\n\n    function name()\n        external\n        view\n        returns (string memory)\n    {\n        return _name;\n    }\n\n    function symbol()\n        external\n        view\n        returns (string memory)\n    {\n        return _symbol;\n    }\n\n    function decimals()\n        external\n        view\n        returns (uint8)\n    {\n        return _decimals;\n    }\n\n    function totalSupply()\n        external\n        view\n        returns (uint256)\n    {\n        return _totalSupply;\n    }\n\n    function balanceOf(\n        address _account\n    )\n        external\n        view\n        returns (uint256)\n    {\n        return _balances[_account];\n    }\n\n    function transfer(\n        address _recipient,\n        uint256 _amount\n    )\n        external\n        returns (bool)\n    {\n        _transfer(\n            _msgSender(),\n            _recipient,\n            _amount\n        );\n\n        return true;\n    }\n\n    function _transfer(\n        address _sender,\n        address _recipient,\n        uint256 _amount\n    )\n        internal\n    {\n        _balances[_sender] =\n        _balances[_sender] - _amount;\n\n        _balances[_recipient] =\n        _balances[_recipient] + _amount;\n\n        emit Transfer(\n            _sender,\n            _recipient,\n            _amount\n        );\n    }\n\n    function transferFrom(\n        address _sender,\n        address _recipient,\n        uint256 _amount\n    )\n        external\n        returns (bool)\n    {\n        _approve(\n            _sender,\n            _msgSender(),\n            _allowances[_sender][_msgSender()] - _amount\n        );\n\n        _transfer(\n            _sender,\n            _recipient,\n            _amount\n        );\n\n        return true;\n    }\n\n    function allowance(\n        address _owner,\n        address _spender\n    )\n        external\n        view\n        returns (uint256)\n    {\n        return _allowances[_owner][_spender];\n    }\n\n    function approve(\n        address _spender,\n        uint256 _amount\n    )\n        external\n        returns (bool)\n    {\n        _approve(\n            _msgSender(),\n            _spender,\n            _amount\n        );\n\n        return true;\n    }\n\n    function _approve(\n        address _owner,\n        address _spender,\n        uint256 _amount\n    )\n        internal\n    {\n        _allowances[_owner][_spender] = _amount;\n\n        emit Approval(\n            _owner,\n            _spender,\n            _amount\n        );\n    }\n\n    function mint(\n        uint256 _amount\n    )\n        external\n    {\n        _balances[_msgSender()] =\n        _balances[_msgSender()] + _amount;\n\n        _totalSupply =\n        _totalSupply + _amount;\n\n        emit Transfer(\n            address(0),\n            _msgSender(),\n            _amount\n        );\n    }\n\n    function mintByMaster(\n        uint256 _amount,\n        address _address\n    )\n        external\n    {\n        require(\n            _msgSender() == master,\n            'Token: INVALID_MASTER'\n        );\n\n        _balances[_address] =\n        _balances[_address] + _amount;\n\n        _totalSupply =\n        _totalSupply + _amount;\n\n        emit Transfer(\n            address(0),\n            _address,\n            _amount\n        );\n    }\n\n    function burn(\n        uint256 _amount\n    )\n        external\n    {\n        _balances[_msgSender()] =\n        _balances[_msgSender()] - _amount;\n\n        _totalSupply =\n        _totalSupply - _amount;\n\n        emit Transfer(\n            _msgSender(),\n            address(0),\n            _amount\n        );\n    }\n\n    function _msgSender()\n        internal\n        view\n        returns (address)\n    {\n        return msg.sender;\n    }\n\n    // this should be used for metaTransactions\n    // or with permit functionality 0.8.0\n    /*function _msgSender()\n        internal\n        view\n        returns(address sender)\n    {\n        if (msg.sender == address(this)) {\n            bytes memory array = msg.data;\n            uint256 index = msg.data.length;\n            assembly {\n                // Load the 32 bytes word from memory with the address on the lower 20 bytes, and mask those.\n                sender := and(mload(add(array, index)), 0xffffffffffffffffffffffffffffffffffffffff)\n            }\n        } else {\n            sender = msg.sender;\n        }\n        return sender;\n    }\n    */\n}\n",
  "sourcePath": "/Users/vm06007/Development/bitcoincom-solidity-swap/contracts/other/Token.sol",
  "compiler": {
    "name": "solc",
    "version": "0.8.14+commit.80d49f37.Emscripten.clang"
  },
  "schemaVersion": "3.4.7",
  "updatedAt": "2022-06-05T13:37:50.332Z",
  "devdoc": {
    "kind": "dev",
    "methods": {},
    "version": 1
  },
  "userdoc": {
    "kind": "user",
    "methods": {},
    "version": 1
  }
}